:100000000C9493000C941A040C94F3030C94BB000E
:100010000C94BB000C94BB000C94BB000C94BB0074
:100020000C94BB000C94BB000C94BB000C94BB0064
:100030000C94BB000C94BB000C94BB000C94BB0054
:100040000C94A9030C94BB000C9467040C94410419
:100050000C94BB000C94BB000C94BB000C94BB0034
:100060000C94BB000C94BB0000000000240027008F
:100070002A0000000000250028002B0004040404CE
:100080000404040402020202020203030303030342
:10009000010204081020408001020408102001021F
:1000A00004081020000000080002010000030407FB
:1000B00000000000000000005E01011F01030301B9
:1000C000008A02010A010202010064001E47040BBB
:1000D0000906007C0101060103030100F401060E7C
:1000E0000102020100C20117010102020101960092
:1000F000023E0106060100C800038207100310003B
:10010000C800820710071003016D011201030101ED
:1001100003010E0124010102020101400124010139
:1001200002020101990411241FBECFEFD8E0DEBF07
:10013000CDBF11E0A0E0B1E0E2E5FEE002C0059035
:100140000D92A838B107D9F723E0A8E8B1E001C0C3
:100150001D92A734B207E1F710E0C3E9D0E004C074
:100160002197FE010E942107C239D107C9F70E94D9
:10017000F0040C9427070C9400000895AF92BF92EE
:10018000CF92DF92EF92FF920F931F93CF93DF9363
:100190006C017B018B01040F151FEB015E01AE1892
:1001A000BF08C017D10759F06991D601ED91FC91B4
:1001B0000190F081E02DC6010995892B79F7C501E1
:1001C000DF91CF911F910F91FF90EF90DF90CF9033
:1001D000BF90AF900895FC01538D448D252F30E0E2
:1001E000842F90E0821B930B541710F0CF96089544
:1001F00001970895FC01918D828D981761F0A28D71
:10020000AE0FBF2FB11D5D968C91928D9F5F9F7336
:10021000928F90E008958FEF9FEF0895FC01918DEC
:10022000828D981731F0828DE80FF11D858D90E059
:1002300008958FEF9FEF0895FC01918D228D892FF6
:1002400090E0805C9F4F821B91098F7399270895DE
:1002500087E992E00E941C0121E0892B09F420E04B
:10026000822F089580E090E0892B29F00E942801D8
:1002700081110C9400000895FC01A48DA80FB92FE2
:10028000B11DA35ABF4F2C91848D90E001968F73BE
:100290009927848FA689B7892C93A089B1898C91DD
:1002A000837080648C93938D848D981306C002882C
:1002B000F389E02D80818F7D80830895EF92FF92F6
:1002C0000F931F93CF93DF93EC0181E0888F9B8D79
:1002D0008C8D98131AC0E889F989808185FF15C033
:1002E0009FB7F894EE89FF896083E889F989808156
:1002F0008370806480839FBF81E090E0DF91CF9125
:100300001F910F91FF90EF900895F62E0B8D10E046
:100310000F5F1F4F0F731127E02E8C8D8E110CC0B5
:100320000FB607FCFACFE889F989808185FFF5CF00
:10033000CE010E943C01F1CFEB8DEC0FFD2FF11DA2
:10034000E35AFF4FF0829FB7F8940B8FEA89FB893D
:1003500080818062CFCFCF93DF93EC01888D88239B
:10036000B9F0AA89BB89E889F9898C9185FD03C018
:10037000808186FD0DC00FB607FCF7CF8C9185FFFD
:10038000F2CF808185FFEDCFCE010E943C01E9CF05
:10039000DF91CF9108952F923F924F925F926F928B
:1003A0007F928F929F92AF92BF92CF92DF92EF9205
:1003B000FF920F931F93CF93DF93CDB7DEB765976F
:1003C0000FB6F894DEBF0FBECDBF9FB7F8948090F4
:1003D0008E0290908F02A0909002B090910286B50C
:1003E000A89B07C08F3F29F02FEF821A920AA20A1A
:1003F000B20A9FBFBA2CA92C982C8824880E911C75
:10040000A11CB11C82E0880C991CAA1CBB1C8A95FB
:10041000D1F780918C0190918D012401481A590ADD
:100420004DEC441640E1540608F4E0C080918A0186
:1004300090918B01009789F020910602309107027C
:10044000D201A21BB30B9D01B7FF03C031952195CB
:100450003109283C31050CF0C5C0019690938B0101
:1004600080938A01029709F0BDC018EB612E10E05D
:10047000712E01E010E020908801309089013B86C8
:100480002A8649E050E0B301CE0101960E94E206BF
:100490008B816C81681708F4682F70E080910602E8
:1004A000909107020E94EB069B014091040150913C
:1004B0000501649FC001659F900D749F900D1124EC
:1004C00064E670E00E94EB06898541E050E08823F5
:1004D00011F042E050E08D81829FD001839FB00DEA
:1004E0001124BD87AC878E81829FF001839FF00D20
:1004F0001124FF87EE878F81829F1001839F300C2C
:100500001124398A288A8885829FD001839FB00D63
:100510001124BB8BAA8BFA01EE0FFF1FEA5FFD4F80
:10052000C12CD12C76018A859B8501979D8B8C8B64
:10053000AC89BD894A175B0708F041C0CC0CDD1CB3
:10054000EE1CFF1C80819181DC012C843D84A2196A
:10055000B309B7FF03C0B195A195B109A617B707B5
:1005600070F4A281B3812E843F84A219B309B7FF2E
:1005700003C0B195A195B109A617B707E0F0A88906
:10058000B9898A1B9B0B97FF03C0919581959109AF
:1005900086179707D0F4828193812A883B88821935
:1005A000930997FF03C09195819591098617970745
:1005B00060F46894C0F84E5F5F4F3496B9CF4A85B7
:1005C0005B854830510508F053C00F5F1F4F59E05D
:1005D000650E711C0D30110509F04DCF10928B0185
:1005E00010928A01109289011092880180918801ED
:1005F000909189018334910540F010928901109205
:10060000880110928B0110928A018091880190914B
:1006100089019C012F5F3F4F30938901209388010E
:10062000880F991FFC01EA5FFD4F51824082809242
:100630008C0190928D01A0928E01B0928F016596EF
:100640000FB6F894DEBF0FBECDBFDF91CF911F91E3
:100650000F91FF90EF90DF90CF90BF90AF909F9061
:100660008F907F906F905F904F903F902F90089564
:10067000C0923403D0923503E0923603F0923703F0
:100680002C883D88369427943092030220920202EF
:10069000309305022093040210938D0200938C0284
:1006A0009DCFFC0101900020E9F73197AF01481B75
:1006B000590BBC0187E992E00C94BE008F929F9287
:1006C000AF92BF920F931F93CF93DF93CDB7DEB757
:1006D000A1970FB6F894DEBF0FBECDBF19A242306E
:1006E00008F44AE08E010F5D1F4F842E912CB12C2F
:1006F000A12CA50194010E94FF06E62FB901CA01B1
:10070000EA30F4F4E05DD801EE938D01232B242B25
:10071000252B79F790E080E0109719F0CD010E9429
:100720005103A1960FB6F894DEBF0FBECDBFDF9187
:10073000CF911F910F91BF90AF909F908F90089590
:10074000E95CE1CF009711F00C94510390E080E058
:1007500008951F920F920FB60F9211242F933F937B
:100760008F939F93AF93BF93809193029091940244
:10077000A0919502B09196023091920223E0230F4E
:100780002D3758F50196A11DB11D2093920280933B
:10079000930290939402A0939502B0939602809155
:1007A0008E0290918F02A0919002B09191020196D9
:1007B000A11DB11D80938E0290938F02A093900291
:1007C000B0939102BF91AF919F918F913F912F91E3
:1007D0000F900FBE0F901F90189526E8230F0296DA
:1007E000A11DB11DD2CF1F920F920FB60F921124EF
:1007F0002F933F934F935F936F937F938F939F9329
:10080000AF93BF93EF93FF93E0910201F091030147
:100810000995FF91EF91BF91AF919F918F917F913A
:100820006F915F914F913F912F910F900FBE0F905D
:100830001F9018951F920F920FB60F9211242F93AD
:100840003F934F935F936F937F938F939F93AF9358
:10085000BF93EF93FF93E0910001F091010109959F
:10086000FF91EF91BF91AF919F918F917F916F9188
:100870005F914F913F912F910F900FBE0F901F905E
:1008800018951F920F920FB60F9211242F933F933A
:100890004F935F936F937F938F939F93AF93BF9388
:1008A000EF93FF9387E992E00E943C01FF91EF9163
:1008B000BF91AF919F918F917F916F915F914F9178
:1008C0003F912F910F900FBE0F901F9018951F9280
:1008D0000F920FB60F9211242F938F939F93EF9344
:1008E000FF93E091A702F091A8028081E091AD0210
:1008F000F091AE0282FD1BC090818091B0028F5FAB
:100900008F732091B102821741F0E091B002F0E0C4
:10091000E956FD4F958F8093B002FF91EF919F9123
:100920008F912F910F900FBE0F901F90189580817F
:10093000F4CF0F931F93CF93DF93E7E9F2E0138295
:10094000128288EE93E0A0E0B0E084839583A683D2
:10095000B7838AE091E09183808385EC90E095876E
:10096000848784EC90E09787868780EC90E0918B79
:10097000808B81EC90E0938B828B82EC90E0958B66
:10098000848B86EC90E0978B868B118E128E138E63
:10099000148EC8E3D3E00FEF1FEF1B830A838AE0B6
:1009A00090E09D838C8349E050E068EB70E08EE33B
:1009B00093E00E94E206198308838CE390E0909311
:1009C00005018093040110923403109235031092B4
:1009D000360310923703DF91CF911F910F91089545
:1009E000789484B5826084BD84B5816084BD85B50A
:1009F000826085BD85B5816085BD80916E00816016
:100A000080936E00109281008091810082608093BB
:100A100081008091810081608093810080918000BD
:100A20008160809380008091B10084608093B100E8
:100A30008091B00081608093B00080917A008460E2
:100A400080937A0080917A00826080937A0080910E
:100A50007A00816080937A0080917A008068809328
:100A60007A001092C1004DE950E0FA01649189E8E2
:100A700090E0FC012491222399F030E0220F331FF3
:100A8000F901E859FF4FA591B491F901EE58FF4FD4
:100A9000259134912FB7F8943C91632B6C932FBF21
:100AA000E1EBF0E02491FA014491FC019491992347
:100AB000D9F0222359F0233009F4B3C008F0A6C0BE
:100AC000213009F4B4C0223009F4B5C0E92FF0E0B8
:100AD000EE0FFF1FEE58FF4FA591B4918FB7F8941A
:100AE0009C91492B4C938FBFE091A702F091A802F3
:100AF00082E08083E091A302F091A4021082E09151
:100B0000A502F091A6028FEC80831092AF02E091D3
:100B1000AB02F091AC0286E08083E091A902F091F3
:100B2000AA02808180618083E091A902F091AA02EB
:100B3000808188608083E091A902F091AA0280817F
:100B400080688083E091A902F091AA0280818F7D64
:100B5000808310923903109238031092340310925C
:100B6000350310923603109237031092030210924D
:100B700002028BEC91E0909301018093000180913F
:100B800069008C7F816080936900E89A30E3432E8E
:100B900046E4542E50E0652E50E0752E80913403CB
:100BA00090913503A0913603B0913703892B8A2B9E
:100BB0008B2B09F4FBC0C0908C02D0908D02E0908A
:100BC0000402F0900502809102029091030280904D
:100BD000340390903503A0903603B090370300E9BA
:100BE00011E0F801B501A4019F01205931404115E0
:100BF00051056105710561F120E340FD21E320A36A
:100C000076956795579547953196EECF2730B1F099
:100C10002830D1F0243009F059CF809180008F7DA9
:100C200003C0809180008F77809380004FCF84B580
:100C30008F7784BD4BCF84B58F7DFBCF8091B00083
:100C40008F778093B00042CF8091B0008F7DF9CF35
:100C5000E0E9F1E0D0E0C0E0AC01421B530B9A01A7
:100C60008C179D0781F0C217D30758F0DC01AC1B2D
:100C7000BD0BA057BE4F5F964C9140832196319695
:100C8000EFCF4082FBCFFE01E057FE4F108287E29C
:100C900091E00E94A2034AE0C501B4010E945E03F4
:100CA00081E391E00E94A203BE0190E080E04AE06F
:100CB0000E945E0384E391E00E94A20380E991E038
:100CC0000E94A20382E491E00E94A203E0EDF1E021
:100CD0009F01205D3140D8019C919923C1F011966C
:100CE0008C918823A1F0903339F4803361F48083B0
:100CF0000E5F1F4F3196ECCF913311F48133B9F36E
:100D000088E191E00AC08133D9F75082F1CFF9012F
:100D1000E053FE4F108280ED91E00E94A2038FE429
:100D200091E00E94A203B70190E080E04AE00E94B7
:100D30005E038EE591E00E94A2038CE691E00E94A2
:100D4000A203B60190E080E04AE00E945E0388E7DB
:100D500091E00E9451038BE791E00E94A2037E0183
:100D6000EE0CFF1CC6E0D2E010E000E06991799142
:100D700090E080E04AE00E945E0386E891E00E94F5
:100D8000A2030F5F1F4FE016F10680F788E791E09E
:100D90000E94510388E791E00E94510310923403AE
:100DA00010923503109236031092370361147104C8
:100DB00009F4F4CE0E942801882309F4EFCE0E94A2
:100DC0000000ECCEFB01DC0102C005900D92415009
:100DD0005040D8F70895AA1BBB1B51E107C0AA1FBA
:100DE000BB1FA617B70710F0A61BB70B881F991FCC
:100DF0005A95A9F780959095BC01CD010895A1E27F
:100E00001A2EAA1BBB1BFD010DC0AA1FBB1FEE1F84
:100E1000FF1FA217B307E407F50720F0A21BB30BCF
:100E2000E40BF50B661F771F881F991F1A9469F74B
:100E300060957095809590959B01AC01BD01CF01A7
:100E40000895EE0FFF1F0590F491E02D0994F8949A
:020E5000FFCFD2
:100E5200BD00BD003C00000000005E01BE00EB00D2
:100E6200AB011C01FA000E016E6F74206170706C90
:100E7200696361626C6500446563696D616C3A2007
:100E820000202800426974292042696E6172793A11
:100E92002000205472692D53746174653A20002039
:100EA20050756C73654C656E6774683A2000206DEE
:100EB2006963726F7365636F6E6473002050726F43
:100EC200746F636F6C3A20000D0A005261772064E0
:080ED2006174613A20002C005C
:00000001FF
