:100000000C949D000C9469050C9442050C94C50059
:100010000C94C5000C94C5000C94C5000C94C5004C
:100020000C94C5000C94C5000C94C5000C94C5003C
:100030000C94C5000C94C5000C94C5000C94C5002C
:100040000C94F8040C94C5000C94B6050C9490051F
:100050000C94C5000C94C5000C94C5000C94C5000C
:100060000C94C5000C94C50000000000240027007B
:100070002A002D0000000000250028002B002E0083
:10008000040404040404040402020202020203033E
:100090000303030305050505050505010204081012
:1000A00020408001020408102001020408102002F0
:1000B0000801041020400000000850020100000365
:1000C0000407000000000000000000005E01011FA6
:1000D00001030301008A02010A0102020100640017
:1000E0001E47040B0906007C010106010303010001
:1000F000F401060E0102020100C201170101020211
:1001000001019600023E0106060100C800038207B5
:1001100010031000C800820710071003016D0112C0
:100120000103010103010E0124010102020101404A
:100130000124010102020101E80511241FBECFEFD5
:10014000D8E0DEBFCDBF11E0A0E0B1E0ECE6FEE01C
:1001500002C005900D92AA34B107D9F722E0AAE4B3
:10016000B1E001C01D92A739B207E1F710E0CDE977
:10017000D0E004C02197FE010E942E07CC39D107A0
:10018000C9F70E943F060C9434070C9400000895B0
:1001900090E0FC01EA54FF4F2491FC01E556FF4F2B
:1001A000349180589F4FFC018491882361F1222370
:1001B000C9F021502B30B0F4E22FF0E0EE51FF4FA8
:1001C0000C942E0708010C01ED000401F200F2006E
:1001D0000F01150119011F012301909180009F77E4
:1001E00090938000E82FF0E0EE0FFF1FEC58FF4FD8
:1001F000A591B4918FB7F894EC91611128C0309516
:100200003E233C938FBF0895909180009F7DE8CF5F
:1002100094B59F7794BDE6CF94B59F7DFBCF909129
:10022000B0009F779093B000DDCF9091B0009F7D9C
:10023000F9CF909190009F7790939000D3CF9091B9
:1002400090009F7DF9CF90919000977FF5CF3E2B46
:10025000D8CF1F93CF93DF93182FD92F8091960279
:1002600060E0C1E0811102C061E0C0E080918A02DB
:100270000E94C80020918E0230918F02129FC0010F
:10028000139F900D11248230910538F0880F991F2B
:10029000880F991F05970197F1F76C2F80918A02BB
:1002A0000E94C80020918E0230918F02D29FC0011F
:1002B000D39F900D11248230910538F0880F991F3B
:1002C000880F991F05970197F1F7DF91CF911F9143
:1002D00008954F925F926F927F928F929F92AF920A
:1002E000BF92CF92DF92EF92FF920F931F93CF9323
:1002F000DF93FC01C12CD12C76012F01481A590A39
:100300002191222349F0CC0CDD1CEE1CFF1C203374
:10031000A1F36894C0F8F1CF80918A0290918B028A
:10032000019609F485C0C0918802D0918902CF3F1F
:10033000DC07A9F0C23068F4FE01FF27C130D1F11B
:10034000E898EE0FFF1FE050FF4F87EC90E091839D
:1003500080838FEF9FEF9093890280938802712CA6
:10036000612C812C912C5401839480918C0290916A
:100370008D02681679067CF582010150110917FD7E
:1003800020C0D501C401002E04C0880F991FAA1FE8
:10039000BB1F0A94D2F78C219D21AE21BF21892B4E
:1003A0008A2B8B2B49F080919402909195020E94A8
:1003B0002901E3CFE998C5CF8091920290919302F1
:1003C000F6CF80919002909191020E9429012FEF27
:1003D000621A720ACACF60E080918A020E94C80045
:1003E000CF3FDC0729F1D0938902C0938802109295
:1003F0008402109285021092860210928702109257
:10040000E6011092E5018C2FC23090F4DD27CC0F6D
:10041000DD1FC050DF4F22E933E03983288381306C
:10042000C1F0809169008C7F816080936900E89AB7
:10043000DF91CF911F910F91FF90EF90DF90CF90C0
:10044000BF90AF909F908F907F906F905F904F90F4
:10045000089580916900837F846080936900E99AA0
:10046000E7CF3FB7F8948091E1019091E201A0912C
:10047000E301B091E40126B5A89B05C02F3F19F018
:100480000196A11DB11D3FBFBA2FA92F982F882714
:10049000BC01CD01620F711D811D911D42E0660FEF
:1004A000771F881F991F4A95D1F708958F929F92C1
:1004B000AF92BF92CF92DF92EF92FF920E943102F1
:1004C0004B015C0188EEC82E83E0D82EE12CF12C84
:1004D0000E943102681979098A099B09683E7340B4
:1004E00081059105A8F321E0C21AD108E108F108BD
:1004F00088EE880E83E0981EA11CB11CC114D104A3
:10050000E104F10429F7FF90EF90DF90CF90BF90C6
:10051000AF909F908F900895AF92BF92CF92DF924D
:10052000EF92FF920F931F93CF93DF936C017B01A8
:100530008B01040F151FEB015E01AE18BF08C01739
:10054000D10759F06991D601ED91FC910190F081AC
:10055000E02DC6010995892B79F7C501DF91CF916F
:100560001F910F91FF90EF90DF90CF90BF90AF90D1
:100570000895FC01538D448D252F30E0842F90E0A9
:10058000821B930B541710F0CF960895019708958E
:10059000FC01918D828D981761F0A28DAE0FBF2F57
:1005A000B11D5D968C91928D9F5F9F73928F90E0AD
:1005B00008958FEF9FEF0895FC01918D828D98171C
:1005C00031F0828DE80FF11D858D90E008958FEF59
:1005D0009FEF0895FC01918D228D892F90E0805C22
:1005E0009F4F821B91098F739927089587EE91E0A1
:1005F0000E94EA0221E0892B09F420E0822F08956D
:1006000080E090E0892B29F00E94F60281110C9481
:1006100000000895FC01A48DA80FB92FB11DA35AA5
:10062000BF4F2C91848D90E001968F739927848F12
:10063000A689B7892C93A089B1898C9180648C9309
:10064000938D848D981306C00288F389E02D8081F4
:100650008F7D80830895EF92FF920F931F93CF9326
:10066000DF93EC0181E0888F9B8D8C8D981316C0F1
:10067000E889F989808185FF11C0EE89FF8960834F
:10068000E889F98980818064808381E090E0DF914E
:10069000CF911F910F91FF90EF900895F62E0B8D43
:1006A00010E00F5F1F4F0F731127E02E8C8D8E11FE
:1006B0000CC00FB607FCFACFE889F989808185FF65
:1006C000F5CFCE010E940A03F1CFEB8DEC0FFD2F89
:1006D000F11DE35AFF4FF0820B8FEA89FB8980817D
:1006E0008062D2CFCF93DF93EC01888D8823B9F05D
:1006F000AA89BB89E889F9898C9185FD03C080812D
:1007000086FD0DC00FB607FCF7CF8C9185FFF2CFA9
:10071000808185FFEDCFCE010E940A03E9CFDF91F2
:10072000CF9108952F923F924F925F926F927F9256
:100730008F929F92AF92BF92CF92DF92EF92FF92F1
:100740000F931F93CF93DF93CDB7DEB765970FB6A7
:10075000F894DEBF0FBECDBF0E9431026B017C0159
:100760008091D8019091D9012601481A590A4DEC7F
:10077000441640E1540608F4E0C08091D6019091FF
:10078000D701009789F02091500130915101120159
:10079000221A330A910137FE03C0319521953109A0
:1007A000283C31050CF0C5C001969093D701809389
:1007B000D601029709F0BDC09CEC692E90E0792E1D
:1007C00001E010E020904E0130904F013B862A86D8
:1007D00049E050E0B301CE0101960E9411078B81E0
:1007E0006C81681708F4682F70E080915001909137
:1007F00051010E941A079B0140910401509105018B
:10080000649FC001659F900D749F900D112464E654
:1008100070E00E941A078985A1E0B0E0882311F0FA
:10082000A2E0B0E08D81829FA001839F500D112432
:100830005D874C878E81829F1001839F300C11242D
:100840003F862E868F81829FA001839F500D1124A9
:10085000598B488B8885829F1001839F300C11240F
:100860003B8A2A8AFD01EE0FFF1FE05BFE4F812CC1
:10087000912C54014A855B85415051095D8B4C8B0D
:100880008C899D89A817B90708F040C0880C991C6D
:10089000AA1CBB1C80819181AC012C843D8442192F
:1008A000530957FF03C05195419551094617570702
:1008B00070F4428153812E843F844219530957FFBB
:1008C00003C051954195510946175707E0F04889F3
:1008D0005989841B950B97FF03C0919581959109C8
:1008E00086179707C8F4828193812A883B888219EA
:1008F000930997FF03C091958195910986179707F2
:1009000058F4689480F812963496BACF4A855B857D
:100910004830510508F053C00F5F1F4F59E0650E76
:10092000711C0D30110509F04DCF1092D7011092B6
:10093000D60110924F0110924E0180914E0190917C
:100940004F018334910540F010924F0110924E01F7
:100950001092D7011092D60180914E0190914F01D3
:100960009C012F5F3F4F30934F0120934E01880F22
:10097000991FFC01E05BFE4F51824082C092D8017A
:10098000D092D901E092DA01F092DB0165960FB6C0
:10099000F894DEBF0FBECDBFDF91CF911F910F91B5
:1009A000FF90EF90DF90CF90BF90AF909F908F908F
:1009B0007F906F905F904F903F902F90089580921E
:1009C000840290928502A0928602B09287022C88BF
:1009D0003D88369427943092E6012092E5013093C9
:1009E0004D0120934C0110934B0100934A019DCF80
:1009F0001F920F920FB60F9211242F933F938F9354
:100A00009F93AF93BF938091DD019091DE01A09100
:100A1000DF01B091E0013091DC0123E0230F2D379D
:100A200058F50196A11DB11D2093DC018093DD01D5
:100A30009093DE01A093DF01B093E0018091E1018A
:100A40009091E201A091E301B091E4010196A11D12
:100A5000B11D8093E1019093E201A093E301B09373
:100A6000E401BF91AF919F918F913F912F910F9092
:100A70000FBE0F901F90189526E8230F0296A11D18
:100A8000B11DD2CF1F920F920FB60F9211242F9348
:100A90003F934F935F936F937F938F939F93AF9306
:100AA000BF93EF93FF93E0910201F0910301099549
:100AB000FF91EF91BF91AF919F918F917F916F9136
:100AC0005F914F913F912F910F900FBE0F901F900C
:100AD00018951F920F920FB60F9211242F933F93E8
:100AE0004F935F936F937F938F939F93AF93BF9336
:100AF000EF93FF93E0910001F09101010995FF91BF
:100B0000EF91BF91AF919F918F917F916F915F9185
:100B10004F913F912F910F900FBE0F901F901895FE
:100B20001F920F920FB60F9211242F933F934F9362
:100B30005F936F937F938F939F93AF93BF93EF9345
:100B4000FF9387EE91E00E940A03FF91EF91BF911E
:100B5000AF919F918F917F916F915F914F913F9155
:100B60002F910F900FBE0F901F9018951F920F920C
:100B70000FB60F9211242F938F939F93EF93FF93B0
:100B8000E091F701F091F8018081E091FD01F09191
:100B9000FE0182FD1BC09081809100028F5F8F73E8
:100BA00020910102821741F0E0910002F0E0E9514A
:100BB000FE4F958F80930002FF91EF919F918F914F
:100BC0002F910F900FBE0F901F9018958081F4CF3A
:100BD0000F931F93CF93DF93E7EEF1E0138212821E
:100BE00088EE93E0A0E0B0E084839583A683B7838A
:100BF0008AE091E09183808385EC90E095878487FB
:100C000084EC90E09787868780EC90E0918B808BD6
:100C100081EC90E0938B828B82EC90E0958B848BBF
:100C200086EC90E0978B868B118E128E138E148E2D
:100C3000C8E8D2E00FEF1FEF1B830A838AE090E041
:100C40009D838C8349E050E06CEC70E08EE892E08C
:100C50000E941107198308838CE390E090930501AB
:100C600080930401109284021092850210928602F1
:100C700010928702DF91CF911F910F91089580917B
:100C8000F20080618EBB80E88093F2009EB3909367
:100C9000F2008093610091E0909361008093610085
:100CA00090936100789484B5826084BD84B581603E
:100CB00084BD85B5826085BD85B5816085BD809127
:100CC0006E00816080936E0010928100809181009F
:100CD0008260809381008091810081608093810097
:100CE000809180008160809380008091B100846059
:100CF0008093B1008091B00081608093B0008091BA
:100D00009100826080939100809191008160809336
:100D100091008091900081608093900080917A0092
:100D2000846080937A0080917A00826080937A0058
:100D300080917A00816080937A0080917A00806847
:100D400080937A001092C100E091F701F091F801D0
:100D500082E08083E091F301F091F4011082E09150
:100D6000F501F091F6018FEC80831092FF01E09184
:100D7000FB01F091FC0186E08083E091F901F091A4
:100D8000FA01808180618083E091F901F091FA019C
:100D9000808188608083E091F901F091FA0180817F
:100DA00080688083E091F901F091FA0180818F7D64
:100DB00080838AE090E090938B0280938A02E5EA38
:100DC000F0E02491EAE8F0E08491882399F090E043
:100DD000880F991FFC01E859FF4FA591B491FC01C0
:100DE000EC58FF4F859194918FB7F894EC91E22BDA
:100DF000EC938FBFC0E0D0E088E191E00E946901F0
:100E00000E94560281E391E00E9469010E9456020D
:100E1000209791F30E94F602882371F30E9400004C
:100E2000EBCFFB01DC0102C005900D924150504018
:100E3000D8F70895AA1BBB1B51E107C0AA1FBB1F0F
:100E4000A617B70710F0A61BB70B881F991F5A9556
:100E5000A9F780959095BC01CD010895EE0FFF1F75
:0C0E60000590F491E02D0994F894FFCF68
:100E6C00C700C7003C00000000002B038C02B90235
:100E7C007203EA02C802DC023030303030303030DD
:100E8C003030303130313031303030313030303151
:100E9C000030303030303030303030303130313074
:0A0EAC003130303031303130300089
:00000001FF
